S014000044617368426F6172645F56322E73726563C1
S11300000C9434000C9451000C94D7000C945100BF
S11300100C9451000C9451000C9451000C949100D8
S11300200C9451000C9451000C9451000C94510008
S11300300C9451000C9451000C9451000C945100F8
S11300400C9453000C9451000C9451000C945100E6
S11300500C9451000C94DB040C9451000C9451004A
S11300600C9451000C94510011241FBECFEFD8E022
S1130070DEBFCDBF11E0A0E0B1E0EEEBF0E102C0E5
S113008005900D92AC31B107D9F721E0ACE1B1E0B4
S113009001C01D92AB34B207E1F70E944C050C94E9
S11300A05D080C9400001F920F920FB60F9211245A
S11300B08F939F9380911C0190911D0101969093C1
S11300C01D0180931C0180911C0190911D01833FAF
S11300D0910569F4809120019091210101969093FA
S11300E021018093200110921D0110921C01809126
S11300F0200190912101CC9769F480911E01909187
S11301001F01019690931F0180931E0110922101FB
S1130110109220019F918F910F900FBE0F901F900E
S113012018951F920F920FB60F9211248F939F93DD
S11301301092B20080913401909135010196909310
S113014035018093340180913201909133010196FD
S113015090933301809332019F918F910F900FBE42
S11301600F901F901895E0EBF0E08081826080830F
S1130170E1EBF0E080818160808380818260808314
S1130180808184608083E0E7F0E080818260808306
S11301901092B2008FEF8093B300089553985B9A46
S11301A0E9E6F0E0808188608083E99A08951F92EF
S11301B00F920FB60F9211248F939F938091360163
S11301C09091370101969093370180933601809185
S11301D0360190913701019749F48091340190914F
S11301E0350190934501809344012AC080913601E2
S11301F0909137010A9721F580913401909135014E
S1130200909343018093420180912E0190912F019C
S113021083569F4F90932F0180932E01809130013C
S11302209091310183569F4F909331018093300117
S11302301092350110923401109237011092360158
S11302409F918F910F900FBE0F901F9018958091E2
S1130250340190913501839708F071C06091420197
S1130260709143018091440190914501681B790B81
S113027062957295707F7627607F762780E090E0A4
S11302800E94A00660933A0170933B0180933C0165
S113029090933D0160913A0170913B0180913C0142
S11302A090913D0120E030E0A9010E9481071816D9
S11302B0DCF420913A0130913B0140913C01509192
S11302C03D0160E070E08AE794E40E940706462F4F
S11302D0572F682F792F40933E0150933F0160932D
S11302E040017093410108C010923E0110923F01F9
S11302F0109240011092410160913E0170913F01C2
S1130300809140019091410120E030E04DE153E4BF
S11303100E94850720E030E048EC52E40E94070682
S113032026E636E646E650E40E9485070E94F40578
S11303300E946F0670932B0160932A0104C01092EF
S11303402B0110922A012091300130913101369510
S1130350279536952795ABE7B4E10E94200896953A
S1130360879590932D0180932C0140911E0150910B
S11303701F0180912001909121016CE3649F900101
S1130380659F300D1124820F931F90933901809340
S113039038018091380190913901892BE9F08091DD
S11303A02C0190912D0160913801709139010E94C6
S11303B00C0880E090E00E94A00626E636E646E6B9
S11303C050E40E9485070E94F4050E946F06709312
S11303D029016093280104C0109229011092280178
S11303E080912E0190912F0108959BB1282F207F99
S11303F09F70922B9BB940984198429A35E03A9568
S1130400F1F70000429895E39A95F1F700002BB1BB
S113041030E1839FC0011124922F9F70892B8BB9E7
S113042040984198429A85E08A95F1F700004298F5
S11304308FE99FE00197F1F700C0000008952FEFC6
S113044085EA9EE0215080409040E1F700C0000022
S11304508AB1806F8AB987B1876087B91BB82FEFDB
S113046089EF90E0215080409040E1F700C0000007
S113047080E30E94F5018FE19EE40197F1F700C04B
S1130480000080E30E94F5018FE99FE00197F1F7F6
S113049000C0000080E30E94F5018FE99FE001970E
S11304A0F1F700C0000082E00E94F5018FE99FE0AF
S11304B00197F1F700C0000088E20E94F5018FE97E
S11304C09FE00197F1F700C0000086E00E94F5016B
S11304D08FE99FE00197F1F700C0000084E10E94DA
S11304E0F5018FE99FE00197F1F700C000008EE06D
S11304F00E94F5018FE99FE00197F1F700C0000029
S113050080E40E94F5018FE99FE00197F1F700C0B4
S1130510000080E80E94F50108959BB1282F207FF8
S11305209F70922B9BB9409A4198429A35E03A9534
S1130530F1F70000429895E39A95F1F700002BB18A
S113054030E1839FC0011124922F9F70892B8BB9B6
S1130550409A4198429A85E08A95F1F700004298C2
S11305608FE99FE00197F1F700C000000895CF9351
S1130570DF93EC018881882331F021960E948D025B
S113058089918111FBCFDF91CF910895613021F4DE
S113059080580E94F5010895623019F480540E9435
S11305A0F5010895CF93DF93EA010E94C602CE01BC
S11305B00E94B702DF91CF910895CF92DF92EF921C
S11305C0FF920F931F93CF93DF93CDB7DEB7D82E4F
S11305D0C62ECA01EDB6FEB64DB75EB7421B510931
S11305E00FB6F8945EBF0FBE4DBF0DB71EB70F5FB9
S11305F01F4F4AE050E0602F712F0E942C08402FBB
S1130600512F6C2D8D2D0E94D2020FB6F894FEBE90
S11306100FBEEDBEDF91CF911F910F91FF90EF9030
S1130620DF90CF90089580912A0190912B018497B7
S11306303CF022E045E250E061E080E00E94DD020F
S113064080912A0190912B010A9754F040912A013C
S113065050912B0122E061E080E00E94DD020FC096
S113066048E051E061E080E00E94D20240912A011A
S113067050912B0121E061E081E00E94DD02809134
S11306802801909129014A973CF022E04BE150E087
S113069061E089E00E94DD028091280190912901A6
S11306A00A9754F0409128015091290122E061E019
S11306B089E00E94DD020FC048E051E061E089E07A
S11306C00E94D202409128015091290121E061E069
S11306D08AE00E94DD02809146018A3048F0409110
S11306E0460122E050E062E086E00E94DD020895C7
S11306F048E051E062E086E00E94D2024091460167
S113070021E050E062E087E00E94DD0208954AE0C3
S113071051E061E082E00E94D20240E151E061E0F8
S113072087E00E94D2024AE051E061E08BE00E943F
S1130730D20243E151E062E082E00E94D20240E151
S113074051E062E085E00E94D20245E151E062E0BE
S113075088E00E94D2024AE151E062E08FE00E9408
S1130760D2020895ECE7F0E0808180648083808188
S11307708160808380818260808380818B7F80839D
S11307808081877F808380818F7D8083EAE7F0E0AA
S113079080818160808380818260808380818460A5
S11307A08083808180688083808188608083808169
S11307B0806480838FEF80937E0083B7816083BFE2
S11307C083B7826083BF0895ECE7F0E09081907F67
S11307D090839081892B8083EAE7F0E080818064B4
S11307E08083808186FDFDCF20917800309179004F
S11307F0822F932F089583E00E94E40390932301B2
S1130800809322016091220170912301615A710940
S113081080E090E00E94A00620E030EC4FE754E432
S11308200E94070620E030E046EC52E40E9485076F
S11308302AE939E949EB5FE30E9485070E94DD0656
S113084060932401709325018093260190932701DE
S113085060912401709125018091260190912701D6
S113086020E030E046EC52E40E94810788233CF00B
S113087022E043E650E062E08DE00E94DD026091F8
S1130880240170912501809126019091270120E097
S113089030E040E151E40E94810718168CF4609125
S11308A024017091250180912601909127010E94D5
S11308B06F0622E0AB0162E08DE00E94DD02089544
S11308C048E051E062E08DE00E94D2026091240190
S11308D07091250180912601909127010E946F0655
S11308E021E0AB0162E08EE00E94DD020895219ACE
S11308F02998E0E8F0E080818260808380818E7FA7
S11309008083A1E8B0E08C9180618C938C918860A5
S11309108C938081806480838081806880838C91C3
S113092082608C938FE39CE9909387008093860088
S11309300895CF92DF92EF92FF92CF93DF9360916D
S1130940860070918700C0912201D091230180E03C
S113095090E00E94A0062091000130910101409195
S11309600201509103010E948F056B017C01BE01BD
S11309706659710980E090E00E94A0062091470129
S1130980309148014091490150914A010E948507E4
S11309909B01AC01C701B6010E9490050E94740638
S11309A07093890060938800DF91CF91FF90EF905E
S11309B0DF90CF9008951F920F920FB60F921124DB
S11309C02F933F934F935F936F937F938F939F9353
S11309D0AF93BF93EF93FF930E949904EAE7F0E08B
S11309E0808180648083FF91EF91BF91AF919F914B
S11309F08F917F916F915F914F913F912F910F90C4
S1130A000FBE0F901F90189585B5846085BDEEE6E6
S1130A10F0E0808181608083089580911E0190912F
S1130A201F010A9750F040911E0150911F0122E0CE
S1130A3062E080E00E94DD020FC048E051E062E025
S1130A4080E00E94D20240911E0150911F0121E0DA
S1130A5062E081E00E94DD028091200190912101F9
S1130A600A9750F0409120015091210122E062E068
S1130A7083E00E94DD02089548E051E062E083E0F3
S1130A800E94D202409120015091210121E062E0B4
S1130A9084E00E94DD0208952FEF89E698E1215059
S1130AA080409040E1F700C00000209A289A789492
S1130AB00E941F020E9404050E94B3000E94CE00FF
S1130AC00E94B2030E947704209104013091050131
S1130AD0409106015091070160910001709101015C
S1130AE080910201909103010E948F0520E030E083
S1130AF040E85AE30E9485076093470170934801D8
S1130B008093490190934A010E9487030E94270120
S1130B100E9413030E940D050E94FB03F5CF505859
S1130B20BB27AA270ED09CC18DD130F092D120F0E2
S1130B3031F49F3F11F41EF482C10EF4E095E7FBFB
S1130B404FC1E92F9ED180F3BA1762077307840758
S1130B50950718F071F49EF5CDC10EF4E0950B2EB7
S1130B60BA2FA02D0B01B90190010C01CA01A001FB
S1130B701124FF27591B99F0593F50F4503E68F156
S1130B801A16F040A22F232F342F4427585FF3CF97
S1130B90469537952795A795F0405395C9F77EF468
S1130BA01F16BA0B620B730B840BBAF09150A1F0B1
S1130BB0FF0FBB1F661F771F881FC2F70EC0BA0F37
S1130BC0621F731F841F48F4879577956795B795BF
S1130BD0F7959E3F08F0B3CF9395880F08F09927B7
S1130BE0EE0F9795879508956ED180F09F3740F466
S1130BF091110EF480C160E070E080E89FE30895F5
S1130C0026F01B16611D711D811DF0C00AC10CD098
S1130C1027C11FD140F016D130F021F45F3F19F005
S1130C20DFC0511168C10BC12CD198F39923C9F3CA
S1130C305523B1F3951B550BBB27AA2762177307DE
S1130C40840738F09F5F5F4F220F331F441FAA1F92
S1130C50A9F333D00E2E3AF0E0E830D09150504052
S1130C60E695001CCAF729D0FE2F27D0660F771F00
S1130C70881FBB1F261737074807AB07B0E809F0E2
S1130C80BB0B802DBF01FF2793585F4F2AF09E3F77
S1130C90510568F0A5C02FC15F3FECF3983EDCF32B
S1130CA0869577956795B795F7959F5FC9F7880FF0
S1130CB0911D9695879597F90895E1E0660F771F42
S1130CC0881FBB1F621773078407BA0720F0621BD3
S1130CD0730B840BBA0BEE1F88F7E095089504D0CC
S1130CE06894B11108C10895D4D088F09F5790F04A
S1130CF0B92F9927B751A0F0D1F0660F771F881F3D
S1130D00991F1AF0BA95C9F712C0B13081F0F2D028
S1130D10B1E00895EFC0672F782F8827B85F39F0C6
S1130D20B93FCCF3869577956795B395D9F73EF49B
S1130D3090958095709561957F4F8F4F9F4F089543
S1130D40E89409C097FB3EF4909580957095619561
S1130D507F4F8F4F9F4F9923A9F0F92F96E9BB2717
S1130D609395F695879577956795B795F111F8CF93
S1130D70FAF4BB0F11F460FF1BC06F5F7F4F8F4FFE
S1130D809F4F16C0882311F096E911C0772321F0F4
S1130D909EE8872F762F05C0662371F096E8862F8C
S1130DA070E060E02AF09A95660F771F881FDAF7E3
S1130DB0880F9695879597F9089585D080F09F3789
S1130DC040F491110EF097C060E070E080E89FEB72
S1130DD0089526F41B16611D711D811D07C021C0D5
S1130DE097F99F6780E870E060E00895882371F4C4
S1130DF0772321F09850872B762F07C0662311F4B0
S1130E0099270DC09051862B70E060E02AF09A95E6
S1130E10660F771F881FDAF7880F9695879597F9DD
S1130E2008959F3F31F0915020F487957795679509
S1130E30B795880F911D9695879597F908959FEF1B
S1130E4080EC089500240A9416161706180609065D
S1130E50089500240A94121613061406050608952C
S1130E60092E0394000C11F4882352F0BB0F40F4B4
S1130E70BF2B11F460FF04C06F5F7F4F8F4F9F4FF4
S1130E80089557FD9058440F551F59F05F3F71F076
S1130E904795880F97FB991F61F09F3F79F08795DD
S1130EA00895121613061406551FF2CF4695F1DF66
S1130EB008C0161617061806991FF1CF86957105F6
S1130EC0610508940895E5DFA0F0BEE7B91788F43A
S1130ED0BB279F3860F41616B11D672F782F88271B
S1130EE0985FF7CF869577956795B11D9395963959
S1130EF0C8F30895E894BB2766277727CB0197F9B1
S1130F00089566D008F48FEF08950BD0A9CF9ADF27
S1130F1028F09FDF18F0952309F062CF90CF1124B9
S1130F20EACFAFDFA0F3959FD1F3950F50E0551FA3
S1130F30629FF001729FBB27F00DB11D639FAA272A
S1130F40F00DB11DAA1F649F6627B00DA11D661F79
S1130F50829F2227B00DA11D621F739FB00DA11D9A
S1130F60621F839FA00D611D221F749F3327A00D54
S1130F70611D231F849F600D211D822F762F6A2FF0
S1130F8011249F5750408AF0E1F088234AF0EE0F75
S1130F90FF1FBB1F661F771F881F91505040A9F782
S1130FA09E3F510570F01CCFA6CF5F3FECF3983EF7
S1130FB0DCF3869577956795B795F795E7959F5FE9
S1130FC0C1F7FE2B880F911D9695879597F9089583
S1130FD0990F0008550FAA0BE0E8FEEF1616170646
S1130FE0E807F907C0F012161306E407F50798F0AE
S1130FF0621B730B840B950B39F40A2661F0232BC7
S1131000242B252B21F408950A2609F4A140A69542
S11310108FEF811D811D0895AA1BBB1B51E107C0E1
S1131020AA1FBB1FA617B70710F0A61BB70B881F74
S1131030991F5A95A9F780959095BC01CD01089503
S1131040A29FB001B39FC001A39F01D0B29F700DB6
S1131050811D1124911D0895FB019F01E8944230E4
S1131060C4F04532B4F44A3029F497FB1EF4909549
S113107081959F4F642F77270E940C08805D8A33E7
S11310800CF0895D8193CB010097A1F716F45DE222
S113109051931082C9010C944D08DC01FC01672FA7
S11310A071917723E1F7329704C07C916D9370833B
S11110B06291AE17BF07C8F30895F894FFCFFE
S11310BE00A043450000FA443000204B6D2F680019
S10F10CE2020003A004C41507300250023
S9030000FC
